{
  "contractName": "MyToken",
  "abi": [
    {
      "inputs": [
        {
          "internalType": "uint256",
          "name": "initialSupply",
          "type": "uint256"
        }
      ],
      "stateMutability": "nonpayable",
      "type": "constructor"
    },
    {
      "inputs": [
        {
          "internalType": "address",
          "name": "",
          "type": "address"
        }
      ],
      "name": "balanceOf",
      "outputs": [
        {
          "internalType": "uint256",
          "name": "",
          "type": "uint256"
        }
      ],
      "stateMutability": "view",
      "type": "function",
      "constant": true
    },
    {
      "inputs": [
        {
          "internalType": "address",
          "name": "_to",
          "type": "address"
        },
        {
          "internalType": "uint256",
          "name": "_value",
          "type": "uint256"
        }
      ],
      "name": "transfer",
      "outputs": [
        {
          "internalType": "bool",
          "name": "success",
          "type": "bool"
        }
      ],
      "stateMutability": "nonpayable",
      "type": "function"
    },
    {
      "inputs": [],
      "name": "getBalance",
      "outputs": [
        {
          "internalType": "uint256",
          "name": "",
          "type": "uint256"
        }
      ],
      "stateMutability": "view",
      "type": "function",
      "constant": true
    },
    {
      "inputs": [],
      "name": "getString",
      "outputs": [
        {
          "internalType": "string",
          "name": "result",
          "type": "string"
        }
      ],
      "stateMutability": "pure",
      "type": "function",
      "constant": true
    }
  ],
  "bytecode": "0x608060405234801561001057600080fd5b506040516106f43803806106f4833981810160405281019061003291906100b6565b806000803373ffffffffffffffffffffffffffffffffffffffff1673ffffffffffffffffffffffffffffffffffffffff16815260200190815260200160002081905550506100e3565b600080fd5b6000819050919050565b61009381610080565b811461009e57600080fd5b50565b6000815190506100b08161008a565b92915050565b6000602082840312156100cc576100cb61007b565b5b60006100da848285016100a1565b91505092915050565b610602806100f26000396000f3fe608060405234801561001057600080fd5b506004361061004c5760003560e01c806312065fe01461005157806370a082311461006f57806389ea642f1461009f578063a9059cbb146100bd575b600080fd5b6100596100ed565b6040516100669190610336565b60405180910390f35b610089600480360381019061008491906103b4565b610133565b6040516100969190610336565b60405180910390f35b6100a761014b565b6040516100b49190610471565b60405180910390f35b6100d760048036038101906100d291906104bf565b610188565b6040516100e4919061051a565b60405180910390f35b60008060003373ffffffffffffffffffffffffffffffffffffffff1673ffffffffffffffffffffffffffffffffffffffff16815260200190815260200160002054905090565b60006020528060005260406000206000915090505481565b60606040518060400160405280601181526020017f696e6920546f6b656e2052696e616c6469000000000000000000000000000000815250905090565b6000816000803373ffffffffffffffffffffffffffffffffffffffff1673ffffffffffffffffffffffffffffffffffffffff1681526020019081526020016000205410156101d557600080fd5b6000808473ffffffffffffffffffffffffffffffffffffffff1673ffffffffffffffffffffffffffffffffffffffff16815260200190815260200160002054826000808673ffffffffffffffffffffffffffffffffffffffff1673ffffffffffffffffffffffffffffffffffffffff1681526020019081526020016000205461025e9190610564565b101561026957600080fd5b816000803373ffffffffffffffffffffffffffffffffffffffff1673ffffffffffffffffffffffffffffffffffffffff16815260200190815260200160002060008282546102b79190610598565b92505081905550816000808573ffffffffffffffffffffffffffffffffffffffff1673ffffffffffffffffffffffffffffffffffffffff168152602001908152602001600020600082825461030c9190610564565b925050819055506001905092915050565b6000819050919050565b6103308161031d565b82525050565b600060208201905061034b6000830184610327565b92915050565b600080fd5b600073ffffffffffffffffffffffffffffffffffffffff82169050919050565b600061038182610356565b9050919050565b61039181610376565b811461039c57600080fd5b50565b6000813590506103ae81610388565b92915050565b6000602082840312156103ca576103c9610351565b5b60006103d88482850161039f565b91505092915050565b600081519050919050565b600082825260208201905092915050565b60005b8381101561041b578082015181840152602081019050610400565b60008484015250505050565b6000601f19601f8301169050919050565b6000610443826103e1565b61044d81856103ec565b935061045d8185602086016103fd565b61046681610427565b840191505092915050565b6000602082019050818103600083015261048b8184610438565b905092915050565b61049c8161031d565b81146104a757600080fd5b50565b6000813590506104b981610493565b92915050565b600080604083850312156104d6576104d5610351565b5b60006104e48582860161039f565b92505060206104f5858286016104aa565b9150509250929050565b60008115159050919050565b610514816104ff565b82525050565b600060208201905061052f600083018461050b565b92915050565b7f4e487b7100000000000000000000000000000000000000000000000000000000600052601160045260246000fd5b600061056f8261031d565b915061057a8361031d565b925082820190508082111561059257610591610535565b5b92915050565b60006105a38261031d565b91506105ae8361031d565b92508282039050818111156105c6576105c5610535565b5b9291505056fea26469706673582212205637f43490922f76390ac9b03bf44b27112bc0b7a09f93238f833fa81ec70ad064736f6c63430008100033",
  "immutableReferences": {},
  "source": "// SPDX-License-Identifier: MIT\npragma solidity >=0.4.22 <0.9.0;\n\ncontract MyToken {\n  mapping(address => uint256) public balanceOf;\n  \n  constructor(uint256 initialSupply) public {\n    balanceOf[msg.sender] = initialSupply;\n  }\n\n  function transfer(address _to, uint256 _value) public returns (bool success){\n        require(balanceOf[msg.sender] >= _value);\n        require(balanceOf[_to] + _value >= balanceOf[_to]);\n\n        balanceOf[msg.sender] -= _value;\n        balanceOf[_to] += _value;\n\n        return true;\n    }\n\n    function getBalance() public view returns (uint256) {\n      return balanceOf[msg.sender]; \n    }\n\n    function getString() public pure returns (string memory result) {\n        return \"ini Token Rinaldi\";\n    }\n}\n",
  "sourcePath": "/Users/kulijari/dev/projects/blockchain/deploy_ethereum_token/contracts/MyToken.sol",
  "compiler": {
    "name": "solc",
    "version": "0.8.16+commit.07a7930e.Emscripten.clang"
  },
  "schemaVersion": "3.4.9",
  "updatedAt": "2022-09-11T04:14:21.273Z",
  "networkType": "ethereum",
  "devdoc": {
    "kind": "dev",
    "methods": {},
    "version": 1
  },
  "userdoc": {
    "kind": "user",
    "methods": {},
    "version": 1
  }
}